:10004600FFC3A59999A5C3FF0000000000000000AA
:10005600000000000000000000000000000000009A
:10006600000000000000000000000000000000008A
:10007600000000000000000000000000000000007A
:10008600183C7E5A5A5A3C2400000000000000002A
:10009600000000000000000000000000000000005A
:1000A600000000000000000000000000000000004A
:1000B600000000000000000000000000000000003A
:1000C600001824424224180000000000000000002E
:1000D600000000000000000000000000000000001A
:1000E600000000000000000000000000000000000A
:1000F60000000000000000000000000000000000FA
:1001060000000000000000000000000000000000E9
:1001160000000000000000000000000000000000D9
:1001260000000000000000000000000000000000C9
:1001360000000000000000000000000000000000B9
:10014600FF81FF8181FF81FF0000000000000000A9
:100156000000000000000000000000000000000099
:100166000000000000000000000000000000000089
:100176000000000000000000000000000000000079
:1001860018187E5A5A1824240000000000000000A7
:100196000000000000000000000000000000000059
:1001A6000000000000000000000000000000000049
:1001B6000000000000000000000000000000000039
:1001C600FFFFFFFFFFFFFFFF000000000000000031
:1001D6000000000000000000000000000000000019
:1001E6000000000000000000000000000000000009
:1001F60000000000000000000000000000000000F9
:100206002047414D4500205075736820746865206D
:10021600426F7865730020454E5445522020205188
:100226005549542000204D616465427959757575AC
:10023600616E0054494D4500004C4556454C000042
:10024600FFFFFFFFFFFFFFFFFFFFFFFFFFFFFFFFB8
:100256008000000000000000000000000000000117
:100266008000000000000000000000000000000107
:1002760080000000000000000000000000000001F7
:1002860080000000000000000000000000000001E7
:1002960080000000000000000000000000000001D7
:1002A60080000000000000000000000000000001C7
:1002B60080000000000000000000000000000001B7
:1002C60080000000000000000000000000000001A7
:1002D6008000000000000000000000000000000197
:1002E6008000000000000000000000000000000187
:1002F6008000000000000000000000000000000177
:100306008000000000000000000000000000000166
:100316008000000000000000000000000000000156
:100326008000000000000000000000000000000146
:100336008000000000000000000000000000000136
:100346008000000000000000000000000000000126
:100356008000000000000000000000000000000116
:100366008000000000000000000000000000000106
:1003760080000000000000000000000000000001F6
:1003860080000000000000000000000000000001E6
:1003960080000000000000000000000000000001D6
:1003A60080000000000000000000000000000001C6
:1003B60080000000000000000000000000000001B6
:1003C60080000000000000000000000000000001A6
:1003D6008000000000000000000000000000000196
:1003E6008000000000000000000000000000000186
:1003F6008000000000000000000000000000000176
:100406008000000000000000000000000000000165
:100416008000000000000000000000000000000155
:100426008000000000000000000000000000000145
:100436008000000000000000000000000000000135
:100446008000000000000000000000000000000125
:100456008000000000000000000000000000000115
:100466008000000000000000000000000000000105
:1004760080000000000000000000000000000001F5
:1004860080000000000000000000000000000001E5
:1004960080000000000000000000000000000001D5
:1004A60080000000000000000000000000000001C5
:1004B60080000000000000000000000000000001B5
:1004C60080000000000000000000000000000001A5
:1004D6008000000000000000000000000000000195
:1004E6008000000000000000000000000000000185
:1004F6008000000000000000000000000000000175
:100506008000000000000000000000000000000164
:100516008000000000000000000000000000000154
:100526008000000000000000000000000000000144
:100536008000000000000000000000000000000134
:100546008000000000000000000000000000000124
:100556008000000000000000000000000000000114
:100566008000000000000000000000000000000104
:1005760080000000000000000000000000000001F4
:1005860080000000000000000000000000000001E4
:1005960080000000000000000000000000000001D4
:1005A60080000000000000000000000000000001C4
:1005B60080000000000000000000000000000001B4
:1005C60080000000000000000000000000000001A4
:1005D6008000000000000000000000000000000194
:1005E6008000000000000000000000000000000184
:1005F6008000000000000000000000000000000174
:100606008000000000000000000000000000000163
:100616008000000000000000000000000000000153
:100626008000000000000000000000000000000143
:10063600FFFFFFFFFFFFFFFFFFFFFFFFFFFFFFFFC4
:100646000000000000000000FFFFFFFFFFFFFFFFAC
:100656000000000000000000800000000000000113
:100666000000000000000000800000000000000103
:1006760000000000000000008000000000000001F3
:1006860000000000000000008000000000000001E3
:1006960000000000000000008000000000000001D3
:1006A60000000000000000008000000000000001C3
:1006B60000000000000000008000000000000001B3
:1006C60000000000000000008000000000000001A3
:1006D6000000000000000000800000000000000193
:1006E6000000000000000000800000000000000183
:1006F6000000000000000000800000000000000173
:100706000000000000000000800000000000000162
:100716000000000000000000800000000000000152
:100726000000000000000000800000000000000142
:100736000000000000000000800000000000000132
:100746000000000000000000800000000000000122
:100756000000000000000000800000000000000112
:100766000000000000000000800000000000000102
:1007760000000000000000008000000000000001F2
:1007860000000000000000008000000000000001E2
:1007960000000000000000008000000000000001D2
:1007A60000000000000000008000000000000001C2
:1007B60000000000000000008000000000000001B2
:1007C60000000000000000008000000000000001A2
:1007D6000000000000000000800000000000000192
:1007E6000000000000000000800000000000000182
:1007F6000000000000000000800000000000000172
:100806000000000000000000800000000000000161
:100816000000000000000000800000000000000151
:100826000000000000000000800000000000000141
:100836000000000000000000800000000000000131
:100846000000000000000000800000000000000121
:100856000000000000000000800000000000000111
:100866000000000000000000800000000000000101
:1008760000000000000000008000000000000001F1
:1008860000000000000000008000000000000001E1
:1008960000000000000000008000000000000001D1
:1008A60000000000000000008000000000000001C1
:1008B60000000000000000008000000000000001B1
:1008C60000000000000000008000000000000001A1
:1008D6000000000000000000800000000000000191
:1008E6000000000000000000800000000000000181
:1008F6000000000000000000800000000000000171
:100906000000000000000000800000000000000160
:100916000000000000000000800000000000000150
:100926000000000000000000800000000000000140
:100936000000000000000000800000000000000130
:100946000000000000000000800000000000000120
:100956000000000000000000800000000000000110
:100966000000000000000000800000000000000100
:1009760000000000000000008000000000000001F0
:1009860000000000000000008000000000000001E0
:1009960000000000000000008000000000000001D0
:1009A60000000000000000008000000000000001C0
:1009B60000000000000000008000000000000001B0
:1009C60000000000000000008000000000000001A0
:1009D6000000000000000000800000000000000190
:1009E6000000000000000000800000000000000180
:1009F6000000000000000000800000000000000170
:100A0600000000000000000080000000000000015F
:100A1600000000000000000080000000000000014F
:100A2600000000000000000080000000000000013F
:100A36000000000000000000FFFFFFFFFFFFFFFFB8
:1014D80001235501210008680000000000000000F9
:1014E8002040280000000101010000000000010464
:1014F80001000000000001000100000101010103DA
:1015080001010101040003020304010101010103B7
:1015180001010100000001040100000000000101B8
:0C1528000100000124040127000126003E
:10123500121611E4F589758C3C758AB0D2A9D28C49
:101245001216597F647E001216421215847F057EA0
:10125500001216421215F61214731216A47A027BA6
:10126500067D01E4FF12140B7A027B0C7D02E4FF7C
:1012750012140B7A027B1C7D03E4FF12140B7A0215
:101285007B2B7D04E4FF12140B7A027B2B7D04E497
:10129500FF12140B7F887E131216421215F61214D4
:1012A500731200037A027B397D017F0512140B7AD4
:1012B500027B3E7D027F0512140B7A027B3F7D0384
:1012C5007F0512140B7A027B457D047F0512140BF2
:1012D50012116C8F237F057E00121642E523B4554B
:0C12E500067523551210A0120A4680E482
:070003007E067F460212F1A8
:0716A4007E027F460212F1F5
:080F5C008F0A8D0B8A0C8B0D2E
:100F6400E50B5401F50FE50AC394044003020FFC9A
:100F7400E4F50E7D017C007F361215E0E50A75F07C
:100F840008A42480250EFF7D017C001215E0E50BEA
:100F9400C3132480FF7D017C001215E07D017C00D9
:100FA4007F301215E0E50F7028E50D250EF582E47B
:100FB400350CF583E493FF121682E50D250EF582B8
:100FC400E4350CF583E493FF7468250EF8A60780D6
:100FD4001B7468250EF8E6FF121682E50D250EF542
:100FE40082E4350CF583E493FF121682050EE50EB8
:100FF400C394085003020F77E50AC3940450030214
:10100400108EE4F50E7D017C007F361215E0E50AB2
:1010140075F008A42460250EFF7D017C001215E004
:10102400E50BC3132488FF7D017C001215E07D01CC
:101034007C007F301215E0E50F7028E50D250EF5D4
:1010440082E4350CF583E493FF121682E50D250E38
:10105400F582E4350CF583E493FF7468250EF8A655
:1010640007801B7468250EF8E6FF121682E50D252D
:101074000EF582E4350CF583E493FF121682050E17
:10108400E50EC3940850030210097D017C007F34EF
:0C1094001215E07D017C007F300215E0A9
:1010A000E4F508F509F508E4F509E52675F040A42E
:1010B0002428F8E50875F008A4282509F8E6FF6457
:1010C00002600FE50875F008A424282509F8E6B4A5
:1010D0000606850825850922EFB407100527742424
:1010E0002526F8E6B52705E4F5270526E52675F05B
:1010F00040A42428F8E50875F008A4282509F8E696
:10110000B40800504E90110CF828287302112402E4
:10111000112A02113002113602113C021153021140
:10112000420211487A017B0680227A017BC6801C2C
:101130007A017B8680167A017B4680107A007BC616
:10114000800A7A007B8680047A007B46AD09AF086E
:10115000120F5C0509E509C3940850030210AA05A3
:0B11600008E508C3940850030210A724
:01116B002261
:100A4600E52324F87003020CA3147003020DD524C9
:100A5600FE7003020B7124046003020F5BE526752A
:100A6600F040A42420F8E52575F008A4282522F8EE
:100A7600E67003020B1524FC7003020B43046003AB
:100A8600020F5BE52675F040A42428F8E52575F0ED
:100A960008A4282522F8E66406703AE52675F04093
:100AA600A42418F8E52575F008A4282522F8E6FF01
:100AB600700476038071EF64046003020F5BE52621
:100AC60075F040A42418F8E52575F008A428252219
:100AD600F876078052E52675F040A42418F8E52537
:100AE60075F008A4282522F8E6FF700476038042F4
:100AF600EF64046003020F5BE52675F040A424183A
:100B0600F8E52575F008A4282522F876078023E560
:100B16002675F040A42428F8E52575F008A42825B4
:100B260022F8E66406700BE52675F040A424200240
:100B36000EC8E52675F040A42420020EDFE52675D2
:100B4600F040A42428F8E52575F008A4282522F805
:100B5600E66406700BE52675F040A42420020F0E0D
:100B6600E52675F040A42420020F39E52675F040ED
:100B7600A42430F8E52575F008A4282522F8E670A7
:100B860003020C4724FC7003020C75046003020F79
:100B96005BE52675F040A42428F8E52575F008A441
:100BA600282522F8E66406704CE52675F040A42454
:100BB60038F8E52575F008A4282522F8E6FF700D1B
:100BC6007603E52675F040A42430020EC8EF6404CF
:100BD6006003020F5BE52675F040A42438F8E5258E
:100BE60075F008A4282522F87603E52675F040A4BA
:100BF6002430020EC8E52675F040A42438F8E52511
:100C060075F008A4282522F8E6FF700D7603E52680
:100C160075F040A42430020EDFEF64046003020F77
:100C26005BE52675F040A42438F8E52575F008A4A0
:100C3600282522F87603E52675F040A42430020E16
:100C4600DFE52675F040A42428F8E52575F008A40C
:100C5600282522F8E66406700BE52675F040A424E4
:100C660030020EC8E52675F040A42430020EDFE5FA
:100C76002675F040A42428F8E52575F008A4282553
:100C860022F8E66406700BE52675F040A4243002CF
:100C96000F0EE52675F040A42430020F39E52675BF
:100CA600F040A42427F8E52575F008A4282522F8A5
:100CB600E67003020D7924FC7003020DA70460039D
:100CC600020F5BE52675F040A42428F8E52575F0AB
:100CD60008A4282522F8E66406704CE52675F0403F
:100CE600A42426F8E52575F008A4282522F8E6FFB1
:100CF600700D7603E52675F040A42427020EC8EF92
:100D060064046003020F5BE52675F040A42426F810
:100D1600E52575F008A4282522F87603E52675F062
:100D260040A42427020EC8E52675F040A42426F820
:100D3600E52575F008A4282522F8E6FF700D760350
:100D4600E52675F040A42427020EDFEF6404600355
:100D5600020F5BE52675F040A42426F8E52575F01C
:100D660008A4282522F87603E52675F040A4242752
:100D7600020EDFE52675F040A42428F8E52575F077
:100D860008A4282522F8E66406700BE52675F040CF
:100D9600A42427020EC8E52675F040A42427020ED7
:100DA600DFE52675F040A42428F8E52575F008A4AB
:100DB600282522F8E66406700BE52675F040A42483
:100DC60027020F0EE52675F040A42427020F39E509
:100DD6002675F040A42429F8E52575F008A42825F1
:100DE60022F8E67003020EA824FC7003020EEE043D
:100DF6006003020F5BE52675F040A42428F8E5257C
:100E060075F008A4282522F8E66406704BE52675D9
:100E1600F040A4242AF8E52575F008A4282522F830
:100E2600E6FF700D7603E52675F040A42429020E30
:100E3600C8EF64046003020F5BE52675F040A42446
:100E46002AF8E52575F008A4282522F87603E52674
:100E560075F040A42429806AE52675F040A4242A6A
:100E6600F8E52575F008A4282522F8E6FF700C762B
:100E760003E52675F040A42429805EEF6404600330
:100E8600020F5BE52675F040A4242AF8E52575F0E7
:100E960008A4282522F87603E52675F040A424291F
:100EA6008037E52675F040A42428F8E52575F00876
:100EB600A4282522F8E664067017E52675F040A4F6
:100EC6002429F8E52575F008A4282522F87602805D
:100ED60044E52675F040A42429F8E52575F008A414
:100EE600282522F876028058E52675F040A42428A5
:100EF600F8E52575F008A4282522F8E66406702B87
:100F0600E52675F040A42429F8E52575F008A428FF
:100F16002522F87606E52675F040A42428F8E5256E
:100F260075F008A4282522F8760422E52675F040F7
:100F3600A42429F8E52575F008A4282522F87606C4
:100F4600E52675F040A42428F8E52575F008A428C0
:060F56002522F8E4F6225A
:03000B000216AB2F
:0316AB00052132E4
:10162B007D527C03ED1D70011C144C70F7EF1F7085
:06163B00011E144E70EACE
:011641002286
:1015BD007E027D697C5AAB061EEB600EAB051DEB02
:0C15CD0060F4AB041CEB60F480F8DFE479
:0115D90022EF
:10161100E4F593F594F591F592F595F596F5B1F517
:0A162100B2F5B3F5B4F5C9F5CA221D
:10116C007508107509557580F00000000000E580C9
:10117C0064F070030212327F037E0012162BE5809E
:10118C0064F07003021232AF8075800F0000000013
:10119C0000AE80EF2EF50812000E12257712207B80
:1011AC00121B7D12167E1211B7120CBB1207BD1248
:1011BC0002BE11FDD711F8DB11F3DD11EEDE11E9E2
:1011CC00E711E4EB11DFED11DAEE0000122AE4F581
:1011DC0009804E750901804975090280447509031F
:1011EC00803F750904803A750905803575090680BC
:1011FC0030750907802B750908802675090980212F
:10120C0075090A801C75090B801775090C801275FD
:10121C00090D800D75090E800875090F800375097D
:08122C0055E580B40FFBAF098A
:011234002297
:0D00340075D6FE75D7E0758E14759A5022B2
:030043000215356E
:10153500C0E0C0D0E59A30E041539AFEE511146051
:101545001514601E1460272403702FE59B644170F9
:10155500297511018024E59BB45405751102801A83
:101565008015E59BB42B05751103800E8009E59B5D
:0F157500B44304B2008000751100D0D0D0E03232
:101642007D527C03ED1D70011C144C70F7EF1F706E
:06165200011E144E70EAB7
:01165800226F
:10165900D2C0E4FFD2C3C2C30FBF14F8D2CCC2CCEC
:04166900D2CCC2CC51
:01166D00225A
:05169400121699D2A717
:0B169900000000000000000000002224
:101682008F1012166ED2A5C2A6851080121694C2B1
:02169200A7228D
:0615DA007D017C007F3062
:1015E0008F10ED4C600312166EC2A5C2A685108046
:0615F000121694C2A722AE
:10166E007580FFC2A5D2A6121694E58020E7FBC2B4
:04167E00A7AF802270
:10158400D2A47F0A7E00121642C2A37F0A7E0012F2
:101594001642D2A37F647E001216421215DA7D0130
:1015A4007C007F011215E07D017C007F061215E0AE
:0915B4007D017C007F0C0215E0B2
:1015F6007D017C007F011215E07D017C007F3412A5
:0B16060015E07D017C007F300215E044
:06140B008F088A098B0A1C
:10141100E4F50BEDC3940150027D01EDD39404403A
:10142100027D0453080FED24FE600F146011146057
:101431001324037012430780800D430790800843F3
:10144100078880034307987D017C001215E0E50AB7
:10145100250BF582E43509F583E493FFC39420401D
:1014610010E508D3940F50E6121682050B0508808B
:01147100DD9D
:011472002257
:0412F1008E088F09CB
:1012F500E4F50DF50EF50CE50CC39409506AE4F51B
:101305000A7D017C007F341215E0E50A2480FF7D0B
:10131500017C001215E0E50C2480FF7D017C0012A4
:1013250015E01215DAE4F50B7E00E50E250BFFEE50
:10133500350DFEE5092FF582E5083EF583E493FFBB
:10134500121682050BE50BC3941040DC7410250EB4
:10135500F50EE4350DF50D050AE50AC3942040A107
:101365007408250CF50C808F7D017C007F361215E5
:0A137500E07D017C007F300215E0EE
:10147300E4F50AE50AC394095049E4F5087D017CC3
:10148300007F341215E0E5082480FF7D017C001203
:1014930015E0E50A2480FF7D017C001215E012159A
:1014A300DAE4F509E4FF1216820509E509C394108D
:1014B30040F20508E508C3942040C27408250AF5E4
:1014C3000A80B07D017C007F361215E07D017C002F
:0514D3007F300215E06E
:0300000002137F69
:0C137F00787FE4F6D8FD75816F0213C67C
:10000E00D083D082F8E4937012740193700DA3A381
:10001E0093F8740193F5828883E473740293686095
:06002E00EFA3A3A380DF95
:10138B00021235E493A3F8E493A34003F68001F231
:10139B0008DFF48029E493A3F85407240CC8C33363
:1013AB00C4540F4420C8834004F456800146F6DF32
:1013BB00E4800B01020408102040809014D8E47ED6
:1013CB00019360BCA3FF543F30E509541FFEE49327
:1013DB00A360010ECF54C025E060A840B8E493A3EE
:1013EB00FAE493A3F8E493A3C8C582C8CAC583CA19
:1013FB00F0A3C8C582C8CAC583CADFE9DEE780BED1
:0115340000B6
:00000001FF
