:10004600FFC3A59999A5C3FF0000000000000000AA
:10005600000000000000000000000000000000009A
:10006600000000000000000000000000000000008A
:10007600000000000000000000000000000000007A
:10008600183C7E5A5A5A3C2400000000000000002A
:10009600000000000000000000000000000000005A
:1000A600000000000000000000000000000000004A
:1000B600000000000000000000000000000000003A
:1000C600001824424224180000000000000000002E
:1000D600000000000000000000000000000000001A
:1000E600000000000000000000000000000000000A
:1000F60000000000000000000000000000000000FA
:1001060000000000000000000000000000000000E9
:1001160000000000000000000000000000000000D9
:1001260000000000000000000000000000000000C9
:1001360000000000000000000000000000000000B9
:10014600FF81FF8181FF81FF0000000000000000A9
:100156000000000000000000000000000000000099
:100166000000000000000000000000000000000089
:100176000000000000000000000000000000000079
:1001860018187E5A5A1824240000000000000000A7
:100196000000000000000000000000000000000059
:1001A6000000000000000000000000000000000049
:1001B6000000000000000000000000000000000039
:1001C600FFFFFFFFFFFFFFFF000000000000000031
:1001D6000000000000000000000000000000000019
:1001E6000000000000000000000000000000000009
:1001F60000000000000000000000000000000000F9
:100206002047414D4500205075736820746865206D
:10021600426F7865730020454E5445522020205188
:100226005549542000204D616465427959757575AC
:10023600616E0054494D4500004C4556454C000042
:10024600FFFFFFFFFFFFFFFFFFFFFFFFFFFFFFFFB8
:100256008000000000000000000000000000000117
:100266008000000000000000000000000000000107
:1002760080000000000000000000000000000001F7
:1002860080000000000000000000000000000001E7
:1002960080000000000000000000000000000001D7
:1002A60080000000000000000000000000000001C7
:1002B60080000000000000000000000000000001B7
:1002C60080000000000000000000000000000001A7
:1002D6008000000000000000000000000000000197
:1002E6008000000000000000000000000000000187
:1002F6008000000000000000000000000000000177
:100306008000000000000000000000000000000166
:100316008000000000000000000000000000000156
:100326008000000000000000000000000000000146
:100336008000000000000000000000000000000136
:100346008000000000000000000000000000000126
:100356008000000000000000000000000000000116
:100366008000000000000000000000000000000106
:1003760080000000000000000000000000000001F6
:1003860080000000000000000000000000000001E6
:1003960080000000000000000000000000000001D6
:1003A60080000000000000000000000000000001C6
:1003B60080000000000000000000000000000001B6
:1003C60080000000000000000000000000000001A6
:1003D6008000000000000000000000000000000196
:1003E6008000000000000000000000000000000186
:1003F6008000000000000000000000000000000176
:100406008000000000000000000000000000000165
:100416008000000000000000000000000000000155
:100426008000000000000000000000000000000145
:100436008000000000000000000000000000000135
:100446008000000000000000000000000000000125
:100456008000000000000000000000000000000115
:100466008000000000000000000000000000000105
:1004760080000000000000000000000000000001F5
:1004860080000000000000000000000000000001E5
:1004960080000000000000000000000000000001D5
:1004A60080000000000000000000000000000001C5
:1004B60080000000000000000000000000000001B5
:1004C60080000000000000000000000000000001A5
:1004D6008000000000000000000000000000000195
:1004E6008000000000000000000000000000000185
:1004F6008000000000000000000000000000000175
:100506008000000000000000000000000000000164
:100516008000000000000000000000000000000154
:100526008000000000000000000000000000000144
:100536008000000000000000000000000000000134
:100546008000000000000000000000000000000124
:100556008000000000000000000000000000000114
:100566008000000000000000000000000000000104
:1005760080000000000000000000000000000001F4
:1005860080000000000000000000000000000001E4
:1005960080000000000000000000000000000001D4
:1005A60080000000000000000000000000000001C4
:1005B60080000000000000000000000000000001B4
:1005C60080000000000000000000000000000001A4
:1005D6008000000000000000000000000000000194
:1005E6008000000000000000000000000000000184
:1005F6008000000000000000000000000000000174
:100606008000000000000000000000000000000163
:100616008000000000000000000000000000000153
:100626008000000000000000000000000000000143
:10063600FFFFFFFFFFFFFFFFFFFFFFFFFFFFFFFFC4
:100646000000000000000000FFFFFFFFFFFFFFFFAC
:100656000000000000000000800000000000000113
:100666000000000000000000800000000000000103
:1006760000000000000000008000000000000001F3
:1006860000000000000000008000000000000001E3
:1006960000000000000000008000000000000001D3
:1006A60000000000000000008000000000000001C3
:1006B60000000000000000008000000000000001B3
:1006C60000000000000000008000000000000001A3
:1006D6000000000000000000800000000000000193
:1006E6000000000000000000800000000000000183
:1006F6000000000000000000800000000000000173
:100706000000000000000000800000000000000162
:100716000000000000000000800000000000000152
:100726000000000000000000800000000000000142
:100736000000000000000000800000000000000132
:100746000000000000000000800000000000000122
:100756000000000000000000800000000000000112
:100766000000000000000000800000000000000102
:1007760000000000000000008000000000000001F2
:1007860000000000000000008000000000000001E2
:1007960000000000000000008000000000000001D2
:1007A60000000000000000008000000000000001C2
:1007B60000000000000000008000000000000001B2
:1007C60000000000000000008000000000000001A2
:1007D6000000000000000000800000000000000192
:1007E6000000000000000000800000000000000182
:1007F6000000000000000000800000000000000172
:100806000000000000000000800000000000000161
:100816000000000000000000800000000000000151
:100826000000000000000000800000000000000141
:100836000000000000000000800000000000000131
:100846000000000000000000800000000000000121
:100856000000000000000000800000000000000111
:100866000000000000000000800000000000000101
:1008760000000000000000008000000000000001F1
:1008860000000000000000008000000000000001E1
:1008960000000000000000008000000000000001D1
:1008A60000000000000000008000000000000001C1
:1008B60000000000000000008000000000000001B1
:1008C60000000000000000008000000000000001A1
:1008D6000000000000000000800000000000000191
:1008E6000000000000000000800000000000000181
:1008F6000000000000000000800000000000000171
:100906000000000000000000800000000000000160
:100916000000000000000000800000000000000150
:100926000000000000000000800000000000000140
:100936000000000000000000800000000000000130
:100946000000000000000000800000000000000120
:100956000000000000000000800000000000000110
:100966000000000000000000800000000000000100
:1009760000000000000000008000000000000001F0
:1009860000000000000000008000000000000001E0
:1009960000000000000000008000000000000001D0
:1009A60000000000000000008000000000000001C0
:1009B60000000000000000008000000000000001B0
:1009C60000000000000000008000000000000001A0
:1009D6000000000000000000800000000000000190
:1009E6000000000000000000800000000000000180
:1009F6000000000000000000800000000000000170
:100A0600000000000000000080000000000000015F
:100A1600000000000000000080000000000000014F
:100A2600000000000000000080000000000000013F
:100A36000000000000000000FFFFFFFFFFFFFFFFB8
:10140500012555012200012100012400012A0001C6
:101415002900012D00012C00086E000000000000CD
:10142500000020402E000000010101000000000026
:10143500010401000000000001000100000101019C
:10144500010301010101040003020304010101017B
:10145500010301010100000001040100000000007A
:0E1465000101010000012604012B00012800F6
:10116900121686E4F589758C3C758AB0D2A9D28CA1
:101179001216CE7F647E001216B71215DA7F057E2D
:10118900001216B712166B1214DC1217197A027BA9
:10119900067D01E4FF1214747A027B0C7D02E4FFE0
:1011A9001214747A027B1C7D03E4FF1214747A0210
:1011B9007B2B7D04E4FF1214747A027B2B7D04E4FB
:1011C900FF1214747F887E131216B712166B12144D
:1011D900DC1200037A027B397D017F051214747ACF
:1011E900027B3F7D037F05121474AB247D027F05CA
:1011F900121590AB217D027F06121590AB287D0454
:101209007F061215901210A08F257F057E001216F9
:10121900B7E525B4550675255512122A120A4680D6
:01122900C9FB
:070003007E067F460212EBAE
:071719007E027F460212EB85
:080F5C008F0A8D0B8A0C8B0D2E
:100F6400E50B5401F50FE50AC394044003020FFC9A
:100F7400E4F50E7D017C007F36121655E50A75F006
:100F840008A42480250EFF7D017C00121655E50B74
:100F9400C3132480FF7D017C001216557D017C0063
:100FA4007F30121655E50F7028E50D250EF582E405
:100FB400350CF583E493FF1216F7E50D250EF58243
:100FC400E4350CF583E493FF746E250EF8A60780D0
:100FD4001B746E250EF8E6FF1216F7E50D250EF5C7
:100FE40082E4350CF583E493FF1216F7050EE50E43
:100FF400C394085003020F77E50AC3940450030214
:10100400108EE4F50E7D017C007F36121655E50A3C
:1010140075F008A42460250EFF7D017C001216558E
:10102400E50BC3132488FF7D017C001216557D0156
:101034007C007F30121655E50F7028E50D250EF55E
:1010440082E4350CF583E493FF1216F7E50D250EC3
:10105400F582E4350CF583E493FF746E250EF8A64F
:1010640007801B746E250EF8E6FF1216F7E50D25B2
:101074000EF582E4350CF583E493FF1216F7050EA2
:10108400E50EC3940850030210097D017C007F34EF
:0C1094001216557D017C007F30021655BD
:10122A00E4F508F509F508E4F509E52875F040A4A0
:10123A00242EF8E50875F008A4282509F8E6FF64C5
:10124A00026004EFB40606850827850923EFB40770
:10125A0010052B74262528F8E6B52B05E4F52B0591
:10126A0028E52875F040A4242EF8E50875F008A4AE
:10127A00282509F8E6B40800504E90128BF8282861
:10128A00730212A30212A90212AF0212B50212BB12
:10129A000212D20212C10212C77A017B0680227A96
:1012AA00017BC6801C7A017B8680167A017B468088
:1012BA00107A007BC6800A7A007B8680047A007BDB
:1012CA0046AD09AF08120F5C0509E509C394085039
:1012DA00030212340508E508C394085003021231C8
:0112EA0022E1
:100A4600E52524F87003020CA3147003020DD524C7
:100A5600FE7003020B7124046003020F5BE5287528
:100A6600F040A42426F8E52775F008A4282523F8E5
:100A7600E67003020B1524FC7003020B43046003AB
:100A8600020F5BE52875F040A4242EF8E52775F0E3
:100A960008A4282523F8E66406703AE52875F04090
:100AA600A4241EF8E52775F008A4282523F8E6FFF8
:100AB600700476038071EF64046003020F5BE5281F
:100AC60075F040A4241EF8E52775F008A428252310
:100AD600F876078052E52875F040A4241EF8E5272D
:100AE60075F008A4282523F8E6FF700476038042F3
:100AF600EF64046003020F5BE52875F040A4241E32
:100B0600F8E52775F008A4282523F876078023E55D
:100B16002875F040A4242EF8E52775F008A42825AA
:100B260023F8E66406700BE52875F040A424260237
:100B36000EC8E52875F040A42426020EDFE52875C8
:100B4600F040A4242EF8E52775F008A4282523F8FC
:100B5600E66406700BE52875F040A42426020F0E05
:100B6600E52875F040A42426020F39E52875F040E3
:100B7600A42436F8E52775F008A4282523F8E6709E
:100B860003020C4724FC7003020C75046003020F79
:100B96005BE52875F040A4242EF8E52775F008A437
:100BA600282523F8E66406704CE52875F040A42451
:100BB6003EF8E52775F008A4282523F8E6FF700D12
:100BC6007603E52875F040A42436020EC8EF6404C7
:100BD6006003020F5BE52875F040A4243EF8E52784
:100BE60075F008A4282523F87607E52875F040A4B3
:100BF6002436020EC8E52875F040A4243EF8E52701
:100C060075F008A4282523F8E6FF700D7603E5287D
:100C160075F040A42436020EDFEF64046003020F71
:100C26005BE52875F040A4243EF8E52775F008A496
:100C3600282523F87607E52875F040A42436020E09
:100C4600DFE52875F040A4242EF8E52775F008A402
:100C5600282523F8E66406700BE52875F040A424E1
:100C660036020EC8E52875F040A42436020EDFE5EC
:100C76002875F040A4242EF8E52775F008A4282549
:100C860023F8E66406700BE52875F040A4243602C6
:100C96000F0EE52875F040A42436020F39E52875B5
:100CA600F040A4242DF8E52775F008A4282523F89C
:100CB600E67003020D7924FC7003020DA70460039D
:100CC600020F5BE52875F040A4242EF8E52775F0A1
:100CD60008A4282523F8E66406704CE52875F0403C
:100CE600A4242CF8E52775F008A4282523F8E6FFA8
:100CF600700D7603E52875F040A4242D020EC8EF8A
:100D060064046003020F5BE52875F040A4242CF808
:100D1600E52775F008A4282523F87607E52875F059
:100D260040A4242D020EC8E52875F040A4242CF812
:100D3600E52775F008A4282523F8E6FF700D76034D
:100D4600E52875F040A4242D020EDFEF640460034D
:100D5600020F5BE52875F040A4242CF8E52775F012
:100D660008A4282523F87607E52875F040A4242D45
:100D7600020EDFE52875F040A4242EF8E52775F06D
:100D860008A4282523F8E66406700BE52875F040CC
:100D9600A4242D020EC8E52875F040A4242D020EC9
:100DA600DFE52875F040A4242EF8E52775F008A4A1
:100DB600282523F8E66406700BE52875F040A42480
:100DC6002D020F0EE52875F040A4242D020F39E5FB
:100DD6002875F040A4242FF8E52775F008A42825E7
:100DE60023F8E67003020EA824FC7003020EEE043C
:100DF6006003020F5BE52875F040A4242EF8E52772
:100E060075F008A4282523F8E66406704BE52875D6
:100E1600F040A42430F8E52775F008A4282523F827
:100E2600E6FF700D7603E52875F040A4242F020E28
:100E3600C8EF64046003020F5BE52875F040A42444
:100E460030F8E52775F008A4282523F87607E52865
:100E560075F040A4242F806AE52875F040A424305C
:100E6600F8E52775F008A4282523F8E6FF700C7628
:100E760003E52875F040A4242F805EEF6404600328
:100E8600020F5BE52875F040A42430F8E52775F0DD
:100E960008A4282523F87607E52875F040A4242F12
:100EA6008037E52875F040A4242EF8E52775F0086C
:100EB600A4282523F8E664067017E52875F040A4F3
:100EC600242FF8E52775F008A4282523F876028054
:100ED60044E52875F040A4242FF8E52775F008A40A
:100EE600282523F876028058E52875F040A4242E9C
:100EF600F8E52775F008A4282523F8E66406702B84
:100F0600E52875F040A4242FF8E52775F008A428F5
:100F16002523F87606E52875F040A4242EF8E52763
:100F260075F008A4282523F8760422E52875F040F4
:100F3600A4242FF8E52775F008A4282523F87606BB
:100F4600E52875F040A4242EF8E52775F008A428B6
:060F56002523F8E4F62259
:03000B00021613C7
:10161300C0E0C0D00522E522B4130F7522000521D6
:0F162300E521B43B057521000524D0D0D0E0327D
:1016A0007D527C03ED1D70011C144C70F7EF1F7010
:0616B000011E144E70EA59
:0116B6002211
:101632007E027D697C5AAB061EEB600EAB051DEB8C
:0C16420060F4AB041CEB60F480F8DFE403
:01164E002279
:10168600E4F593F594F591F592F595F596F5B1F5A2
:0A169600B2F5B3F5B4F5C9F5CA22A8
:1010A0007508107509557580F00000000000E58096
:1010B00064F070030211667F037E001216A0E580C3
:1010C00064F07003021166AF8075800F00000000AD
:1010D00000AE80EF2EF50812000E11597711547BE7
:1010E000114F7D114A7E1145B71140BB113BBD1117
:1010F00036BE1131D7112CDB1127DD1122DE111D77
:10110000E71118EB1113ED110EEE0000115EE4F57E
:1011100009804E75090180497509028044750903EB
:10112000803F750904803A75090580357509068088
:1011300030750907802B75090880267509098021FB
:1011400075090A801C75090B801775090C801275CA
:10115000090D800D75090E800875090F800375094A
:0811600055E580B40FFBAF0957
:011168002264
:0D00340075D6FE75D7E0758E14759A5022B2
:0300430002154162
:10154100C0E0C0D0E59A30E041539AFEE511146045
:101551001514601E1460272403702FE59B644170ED
:10156100297511018024E59BB45405751102801A77
:101571008015E59BB42B05751103800E8009E59B51
:0F158100B44304B2008000751100D0D0D0E03226
:1016B7007D527C03ED1D70011C144C70F7EF1F70F9
:0616C700011E144E70EA42
:0116CD0022FA
:1016CE00D2C0E4FFD2C3C2C30FBF14F8D2CCC2CC77
:0416DE00D2CCC2CCDC
:0116E20022E5
:0517090012170ED2A72B
:0B170E000000000000000000000022AE
:1016F7008F101216E3D2A5C2A6851080121709C251
:02170700A72217
:06164F007D017C007F30EC
:101655008F10ED4C60031216E3C2A5C2A68510805B
:06166500121709C2A722C2
:1016E3007580FFC2A5D2A6121709E58020E7FBC2C9
:0416F300A7AF8022FB
:1015DA00D2A47F0A7E001216B7C2A37F0A7E001227
:1015EA0016B7D2A37F647E001216B712164F7D017A
:1015FA007C007F011216557D017C007F061216556C
:09160A007D017C007F0C021655E5
:10166B007D017C007F011216557D017C007F3412B9
:0B167B0016557D017C007F30021655E3
:061474008F088A098B0AB3
:10147A00E4F50BEDC3940150027D01EDD3940440D1
:10148A00027D0453080FED24FE600F1460111460EE
:10149A001324037012430780800D4307908008438A
:1014AA00078880034307987D017C00121655E50AD8
:1014BA00250BF582E43509F583E493FFC3942040B4
:1014CA0010E508D3940F50E61216F7050B050880AD
:0114DA00DD34
:0114DB0022EE
:041590008B08AE070F
:10159400E4F509EDC3940150027D01EDD3940440B8
:1015A400027D0453060FED24FE600F1460111460D5
:1015B4001324037012430780800D4307908008436F
:1015C400078880034307987D017C00121655E508BF
:0615D4002430FF0216F7AF
:0412EB008E088F09D1
:1012EF00E4F50DF50EF50CE50CC39409506AE4F521
:1012FF000A7D017C007F34121655E50A2480FF7D9C
:10130F00017C00121655E50C2480FF7D017C001234
:10131F00165512164FE4F50B7E00E50E250BFFEE6A
:10132F00350DFEE5092FF582E5083EF583E493FFC1
:10133F001216F7050BE50BC3941040DC7410250E45
:10134F00F50EE4350DF50D050AE50AC3942040A10D
:10135F007408250CF50C808F7D017C007F361216EA
:0A136F00557D017C007F3002165509
:1014DC00E4F50AE50AC394095049E4F5087D017C5A
:1014EC00007F34121655E5082480FF7D017C001224
:1014FC001655E50A2480FF7D017C00121655121644
:10150C004FE4F509E4FF1216F70509E509C3941039
:10151C0040F20508E508C3942040C27408250AF57A
:10152C000A80B07D017C007F361216557D017C004F
:05153C007F300216558E
:030000000213796F
:0C137900787FE4F6D8FD7581750213C082
:10000E00D083D082F8E4937012740193700DA3A381
:10001E0093F8740193F5828883E473740293686095
:06002E00EFA3A3A380DF95
:10138500021169E493A3F8E493A34003F68001F204
:1013950008DFF48029E493A3F85407240CC8C33369
:1013A500C4540F4420C8834004F456800146F6DF38
:1013B500E4800B0102040810204080901405E47EAF
:1013C500019360BCA3FF543F30E509541FFEE4932D
:1013D500A360010ECF54C025E060A840B8E493A3F4
:1013E500FAE493A3F8E493A3C8C582C8CAC583CA1F
:1013F500F0A3C8C582C8CAC583CADFE9DEE780BED7
:011473000078
:00000001FF
