:10004600FFC3A59999A5C3FF0000000000000000AA
:10005600000000000000000000000000000000009A
:10006600000000000000000000000000000000008A
:10007600000000000000000000000000000000007A
:10008600183C7E5A5A5A3C2400000000000000002A
:10009600000000000000000000000000000000005A
:1000A600000000000000000000000000000000004A
:1000B600000000000000000000000000000000003A
:1000C600001824424224180000000000000000002E
:1000D600000000000000000000000000000000001A
:1000E600000000000000000000000000000000000A
:1000F60000000000000000000000000000000000FA
:1001060000000000000000000000000000000000E9
:1001160000000000000000000000000000000000D9
:1001260000000000000000000000000000000000C9
:1001360000000000000000000000000000000000B9
:10014600FF81FF8181FF81FF0000000000000000A9
:100156000000000000000000000000000000000099
:100166000000000000000000000000000000000089
:100176000000000000000000000000000000000079
:1001860018187E5A5A1824240000000000000000A7
:100196000000000000000000000000000000000059
:1001A6000000000000000000000000000000000049
:1001B6000000000000000000000000000000000039
:1001C600FFFFFFFFFFFFFFFF000000000000000031
:1001D6000000000000000000000000000000000019
:1001E6000000000000000000000000000000000009
:1001F60000000000000000000000000000000000F9
:100206002047414D4500205075736820746865206D
:10021600426F7865730020454E5445522020205188
:100226005549542000204D616465427959757575AC
:10023600616E0054494D4500004C4556454C000042
:10024600FFFFFFFFFFFFFFFFFFFFFFFFFFFFFFFFB8
:100256008000000000000000000000000000000117
:100266008000000000000000000000000000000107
:1002760080000000000000000000000000000001F7
:1002860080000000000000000000000000000001E7
:1002960080000000000000000000000000000001D7
:1002A60080000000000000000000000000000001C7
:1002B60080000000000000000000000000000001B7
:1002C60080000000000000000000000000000001A7
:1002D6008000000000000000000000000000000197
:1002E6008000000000000000000000000000000187
:1002F6008000000000000000000000000000000177
:100306008000000000000000000000000000000166
:100316008000000000000000000000000000000156
:100326008000000000000000000000000000000146
:100336008000000000000000000000000000000136
:100346008000000000000000000000000000000126
:100356008000000000000000000000000000000116
:100366008000000000000000000000000000000106
:1003760080000000000000000000000000000001F6
:1003860080000000000000000000000000000001E6
:1003960080000000000000000000000000000001D6
:1003A60080000000000000000000000000000001C6
:1003B60080000000000000000000000000000001B6
:1003C60080000000000000000000000000000001A6
:1003D6008000000000000000000000000000000196
:1003E6008000000000000000000000000000000186
:1003F6008000000000000000000000000000000176
:100406008000000000000000000000000000000165
:100416008000000000000000000000000000000155
:100426008000000000000000000000000000000145
:100436008000000000000000000000000000000135
:100446008000000000000000000000000000000125
:100456008000000000000000000000000000000115
:100466008000000000000000000000000000000105
:1004760080000000000000000000000000000001F5
:1004860080000000000000000000000000000001E5
:1004960080000000000000000000000000000001D5
:1004A60080000000000000000000000000000001C5
:1004B60080000000000000000000000000000001B5
:1004C60080000000000000000000000000000001A5
:1004D6008000000000000000000000000000000195
:1004E6008000000000000000000000000000000185
:1004F6008000000000000000000000000000000175
:100506008000000000000000000000000000000164
:100516008000000000000000000000000000000154
:100526008000000000000000000000000000000144
:100536008000000000000000000000000000000134
:100546008000000000000000000000000000000124
:100556008000000000000000000000000000000114
:100566008000000000000000000000000000000104
:1005760080000000000000000000000000000001F4
:1005860080000000000000000000000000000001E4
:1005960080000000000000000000000000000001D4
:1005A60080000000000000000000000000000001C4
:1005B60080000000000000000000000000000001B4
:1005C60080000000000000000000000000000001A4
:1005D6008000000000000000000000000000000194
:1005E6008000000000000000000000000000000184
:1005F6008000000000000000000000000000000174
:100606008000000000000000000000000000000163
:100616008000000000000000000000000000000153
:100626008000000000000000000000000000000143
:10063600FFFFFFFFFFFFFFFFFFFFFFFFFFFFFFFFC4
:100646000000000000000000FFFFFFFFFFFFFFFFAC
:100656000000000000000000800000000000000113
:100666000000000000000000800000000000000103
:1006760000000000000000008000000000000001F3
:1006860000000000000000008000000000000001E3
:1006960000000000000000008000000000000001D3
:1006A60000000000000000008000000000000001C3
:1006B60000000000000000008000000000000001B3
:1006C60000000000000000008000000000000001A3
:1006D6000000000000000000800000000000000193
:1006E6000000000000000000800000000000000183
:1006F6000000000000000000800000000000000173
:100706000000000000000000800000000000000162
:100716000000000000000000800000000000000152
:100726000000000000000000800000000000000142
:100736000000000000000000800000000000000132
:100746000000000000000000800000000000000122
:100756000000000000000000800000000000000112
:100766000000000000000000800000000000000102
:1007760000000000000000008000000000000001F2
:1007860000000000000000008000000000000001E2
:1007960000000000000000008000000000000001D2
:1007A60000000000000000008000000000000001C2
:1007B60000000000000000008000000000000001B2
:1007C60000000000000000008000000000000001A2
:1007D6000000000000000000800000000000000192
:1007E6000000000000000000800000000000000182
:1007F6000000000000000000800000000000000172
:100806000000000000000000800000000000000161
:100816000000000000000000800000000000000151
:100826000000000000000000800000000000000141
:100836000000000000000000800000000000000131
:100846000000000000000000800000000000000121
:100856000000000000000000800000000000000111
:100866000000000000000000800000000000000101
:1008760000000000000000008000000000000001F1
:1008860000000000000000008000000000000001E1
:1008960000000000000000008000000000000001D1
:1008A60000000000000000008000000000000001C1
:1008B60000000000000000008000000000000001B1
:1008C60000000000000000008000000000000001A1
:1008D6000000000000000000800000000000000191
:1008E6000000000000000000800000000000000181
:1008F6000000000000000000800000000000000171
:100906000000000000000000800000000000000160
:100916000000000000000000800000000000000150
:100926000000000000000000800000000000000140
:100936000000000000000000800000000000000130
:100946000000000000000000800000000000000120
:100956000000000000000000800000000000000110
:100966000000000000000000800000000000000100
:1009760000000000000000008000000000000001F0
:1009860000000000000000008000000000000001E0
:1009960000000000000000008000000000000001D0
:1009A60000000000000000008000000000000001C0
:1009B60000000000000000008000000000000001B0
:1009C60000000000000000008000000000000001A0
:1009D6000000000000000000800000000000000190
:1009E6000000000000000000800000000000000180
:1009F6000000000000000000800000000000000170
:100A0600000000000000000080000000000000015F
:100A1600000000000000000080000000000000014F
:100A2600000000000000000080000000000000013F
:100A36000000000000000000FFFFFFFFFFFFFFFFB8
:1014A300012355012100086800000000000000002E
:1014B3002040280000000101010000000000010499
:1014C300010000000000010001000001010101030F
:1014D30001010101040003020304010101010103ED
:1014E30001010100000001040100000000000101EE
:0C14F30001000001240401270001260074
:101169001215DCE4F589758C3C758AB0D2A9D28C4C
:101179001216247F647E0012160D12154F7F057E0C
:101189000012160D1215C112143E12166F7A027B47
:10119900067D01E4FF1213D67A027B0C7D02E4FF7F
:1011A9001213D67A027B1C7D03E4FF1213D67A024E
:1011B9007B2B7D04E4FF1213D67A027B2B7D04E49A
:1011C900FF1213D67F887E1312160D1215C1121441
:1011D9003E1200037A027B397D017F051213D67A0C
:1011E900027B3E7D027F051213D67A027B3F7D0387
:1011F9007F051213D67A027B457D047F051213D62B
:101209001210A08F237F057E0012160DE523B45519
:0C12190006752355121225120A4680E4C7
:070003007E067F460212BCDD
:07166F007E027F460212BC5F
:080F5C008F0A8D0B8A0C8B0D2E
:100F6400E50B5401F50FE50AC394044003020FFC9A
:100F7400E4F50E7D017C007F361215ABE50A75F0B1
:100F840008A42480250EFF7D017C001215ABE50B1F
:100F9400C3132480FF7D017C001215AB7D017C000E
:100FA4007F301215ABE50F7028E50D250EF582E4B0
:100FB400350CF583E493FF12164DE50D250EF582ED
:100FC400E4350CF583E493FF7468250EF8A60780D6
:100FD4001B7468250EF8E6FF12164DE50D250EF577
:100FE40082E4350CF583E493FF12164D050EE50EED
:100FF400C394085003020F77E50AC3940450030214
:10100400108EE4F50E7D017C007F361215ABE50AE7
:1010140075F008A42460250EFF7D017C001215AB39
:10102400E50BC3132488FF7D017C001215AB7D0101
:101034007C007F301215ABE50F7028E50D250EF509
:1010440082E4350CF583E493FF12164DE50D250E6D
:10105400F582E4350CF583E493FF7468250EF8A655
:1010640007801B7468250EF8E6FF12164DE50D2562
:101074000EF582E4350CF583E493FF12164D050E4C
:10108400E50EC3940850030210097D017C007F34EF
:0C1094001215AB7D017C007F300215AB13
:10122500E4F508F509F508E4F509E52675F040A4A7
:101235002428F8E50875F008A4282509F8E6FF64D0
:10124500026004EFB40606850825850922EFB40877
:1012550000504E90125FF828287302127702127D13
:1012650002128302128902128F0212A6021295023D
:10127500129B7A017B0680227A017BC6801C7A014B
:101285007B8680167A017B4680107A007BC6800AB1
:101295007A007B8680047A007B46AD09AF08120F81
:1012A5005C0509E509C3940840800508E508C39471
:0612B50008500302122C98
:0112BB002210
:100A4600E52324F87003020CA3147003020DD524C9
:100A5600FE7003020B7124046003020F5BE526752A
:100A6600F040A42420F8E52575F008A4282522F8EE
:100A7600E67003020B1524FC7003020B43046003AB
:100A8600020F5BE52675F040A42428F8E52575F0ED
:100A960008A4282522F8E66406703AE52675F04093
:100AA600A42418F8E52575F008A4282522F8E6FF01
:100AB600700476038071EF64046003020F5BE52621
:100AC60075F040A42418F8E52575F008A428252219
:100AD600F876078052E52675F040A42418F8E52537
:100AE60075F008A4282522F8E6FF700476038042F4
:100AF600EF64046003020F5BE52675F040A424183A
:100B0600F8E52575F008A4282522F876078023E560
:100B16002675F040A42428F8E52575F008A42825B4
:100B260022F8E66406700BE52675F040A424200240
:100B36000EC8E52675F040A42420020EDFE52675D2
:100B4600F040A42428F8E52575F008A4282522F805
:100B5600E66406700BE52675F040A42420020F0E0D
:100B6600E52675F040A42420020F39E52675F040ED
:100B7600A42430F8E52575F008A4282522F8E670A7
:100B860003020C4724FC7003020C75046003020F79
:100B96005BE52675F040A42428F8E52575F008A441
:100BA600282522F8E66406704CE52675F040A42454
:100BB60038F8E52575F008A4282522F8E6FF700D1B
:100BC6007603E52675F040A42430020EC8EF6404CF
:100BD6006003020F5BE52675F040A42438F8E5258E
:100BE60075F008A4282522F87607E52675F040A4B6
:100BF6002430020EC8E52675F040A42438F8E52511
:100C060075F008A4282522F8E6FF700D7603E52680
:100C160075F040A42430020EDFEF64046003020F77
:100C26005BE52675F040A42438F8E52575F008A4A0
:100C3600282522F87607E52675F040A42430020E12
:100C4600DFE52675F040A42428F8E52575F008A40C
:100C5600282522F8E66406700BE52675F040A424E4
:100C660030020EC8E52675F040A42430020EDFE5FA
:100C76002675F040A42428F8E52575F008A4282553
:100C860022F8E66406700BE52675F040A4243002CF
:100C96000F0EE52675F040A42430020F39E52675BF
:100CA600F040A42427F8E52575F008A4282522F8A5
:100CB600E67003020D7924FC7003020DA70460039D
:100CC600020F5BE52675F040A42428F8E52575F0AB
:100CD60008A4282522F8E66406704CE52675F0403F
:100CE600A42426F8E52575F008A4282522F8E6FFB1
:100CF600700D7603E52675F040A42427020EC8EF92
:100D060064046003020F5BE52675F040A42426F810
:100D1600E52575F008A4282522F87607E52675F05E
:100D260040A42427020EC8E52675F040A42426F820
:100D3600E52575F008A4282522F8E6FF700D760350
:100D4600E52675F040A42427020EDFEF6404600355
:100D5600020F5BE52675F040A42426F8E52575F01C
:100D660008A4282522F87607E52675F040A424274E
:100D7600020EDFE52675F040A42428F8E52575F077
:100D860008A4282522F8E66406700BE52675F040CF
:100D9600A42427020EC8E52675F040A42427020ED7
:100DA600DFE52675F040A42428F8E52575F008A4AB
:100DB600282522F8E66406700BE52675F040A42483
:100DC60027020F0EE52675F040A42427020F39E509
:100DD6002675F040A42429F8E52575F008A42825F1
:100DE60022F8E67003020EA824FC7003020EEE043D
:100DF6006003020F5BE52675F040A42428F8E5257C
:100E060075F008A4282522F8E66406704BE52675D9
:100E1600F040A4242AF8E52575F008A4282522F830
:100E2600E6FF700D7603E52675F040A42429020E30
:100E3600C8EF64046003020F5BE52675F040A42446
:100E46002AF8E52575F008A4282522F87607E52670
:100E560075F040A42429806AE52675F040A4242A6A
:100E6600F8E52575F008A4282522F8E6FF700C762B
:100E760003E52675F040A42429805EEF6404600330
:100E8600020F5BE52675F040A4242AF8E52575F0E7
:100E960008A4282522F87607E52675F040A424291B
:100EA6008037E52675F040A42428F8E52575F00876
:100EB600A4282522F8E664067017E52675F040A4F6
:100EC6002429F8E52575F008A4282522F87602805D
:100ED60044E52675F040A42429F8E52575F008A414
:100EE600282522F876028058E52675F040A42428A5
:100EF600F8E52575F008A4282522F8E66406702B87
:100F0600E52675F040A42429F8E52575F008A428FF
:100F16002522F87606E52675F040A42428F8E5256E
:100F260075F008A4282522F8760422E52675F040F7
:100F3600A42429F8E52575F008A4282522F87606C4
:100F4600E52675F040A42428F8E52575F008A428C0
:060F56002522F8E4F6225A
:03000B0002167664
:0316760005213219
:1015F6007D527C03ED1D70011C144C70F7EF1F70BB
:06160600011E144E70EA03
:01160C0022BB
:101588007E027D697C5AAB061EEB600EAB051DEB37
:0C15980060F4AB041CEB60F480F8DFE4AE
:0115A4002224
:1015DC00E4F593F594F591F592F595F596F5B1F54D
:0A15EC00B2F5B3F5B4F5C9F5CA2253
:1010A0007508107509557580F00000000000E58096
:1010B00064F070030211667F037E001215F6E5806E
:1010C00064F07003021166AF8075800F00000000AD
:1010D00000AE80EF2EF50812000E11597711547BE7
:1010E000114F7D114A7E1145B71140BB113BBD1117
:1010F00036BE1131D7112CDB1127DD1122DE111D77
:10110000E71118EB1113ED110EEE0000115EE4F57E
:1011100009804E75090180497509028044750903EB
:10112000803F750904803A75090580357509068088
:1011300030750907802B75090880267509098021FB
:1011400075090A801C75090B801775090C801275CA
:10115000090D800D75090E800875090F800375094A
:0811600055E580B40FFBAF0957
:011168002264
:0D00340075D6FE75D7E0758E14759A5022B2
:03004300021500A3
:10150000C0E0C0D0E59A30E041539AFEE511146086
:101510001514601E1460272403702FE59B6441702E
:10152000297511018024E59BB45405751102801AB8
:101530008015E59BB42B05751103800E8009E59B92
:0F154000B44304B2008000751100D0D0D0E03267
:10160D007D527C03ED1D70011C144C70F7EF1F70A3
:06161D00011E144E70EAEC
:0116230022A4
:10162400D2C0E4FFD2C3C2C30FBF14F8D2CCC2CC21
:04163400D2CCC2CC86
:01163800228F
:05165F00121664D2A781
:0B166400000000000000000000002259
:10164D008F10121639D2A5C2A685108012165FC250
:02165D00A722C2
:0615A5007D017C007F3097
:1015AB008F10ED4C6003121639C2A5C2A6851080B0
:0615BB0012165FC2A72218
:101639007580FFC2A5D2A612165FE58020E7FBC21E
:04164900A7AF8022A5
:10154F00D2A47F0A7E0012160DC2A37F0A7E00125C
:10155F00160DD2A37F647E0012160D1215A57D0104
:10156F007C007F011215AB7D017C007F061215AB4D
:09157F007D017C007F0C0215AB1C
:1015C1007D017C007F011215AB7D017C007F34120F
:0B15D10015AB7D017C007F300215ABE4
:0613D6008F088A098B0A52
:1013DC00E4F50BEDC3940150027D01EDD394044070
:1013EC00027D0453080FED24FE600F14601114608D
:1013FC001324037012430780800D43079080084329
:10140C00078880034307987D017C001215ABE50A21
:10141C00250BF582E43509F583E493FFC394204052
:10142C0010E508D3940F50E612164D050B050880F5
:01143C00DDD2
:01143D00228C
:0412BC008E088F0900
:1012C000E4F50DF50EF50CE50CC39409506AE4F550
:1012D0000A7D017C007F341215ABE50A2480FF7D76
:1012E000017C001215ABE50C2480FF7D017C00120F
:1012F00015AB1215A5E4F50B7E00E50E250BFFEEF0
:10130000350DFEE5092FF582E5083EF583E493FFF0
:1013100012164D050BE50BC3941040DC7410250E1E
:10132000F50EE4350DF50D050AE50AC3942040A13C
:101330007408250CF50C808F7D017C007F3612151A
:0A134000AB7D017C007F300215AB8D
:10143E00E4F50AE50AC394095049E4F5087D017CF8
:10144E00007F341215ABE5082480FF7D017C00126D
:10145E0015ABE50A2480FF7D017C001215AB121539
:10146E00A5E4F509E4FF12164D0509E509C394102C
:10147E0040F20508E508C3942040C27408250AF519
:10148E000A80B07D017C007F361215AB7D017C0099
:05149E007F300215ABD8
:0300000002134A9E
:0C134A00787FE4F6D8FD75816F021391E6
:10000E00D083D082F8E4937012740193700DA3A381
:10001E0093F8740193F5828883E473740293686095
:06002E00EFA3A3A380DF95
:10135600021169E493A3F8E493A34003F68001F233
:1013660008DFF48029E493A3F85407240CC8C33398
:10137600C4540F4420C8834004F456800146F6DF67
:10138600E4800B01020408102040809014A3E47E40
:10139600019360BCA3FF543F30E509541FFEE4935C
:1013A600A360010ECF54C025E060A840B8E493A323
:1013B600FAE493A3F8E493A3C8C582C8CAC583CA4E
:1013C600F0A3C8C582C8CAC583CADFE9DEE780BE06
:0114FF0000EC
:00000001FF
