:10004600FFC3A59999A5C3FF0000000000000000AA
:10005600000000000000000000000000000000009A
:10006600000000000000000000000000000000008A
:10007600000000000000000000000000000000007A
:10008600183C7E5A5A5A3C2400000000000000002A
:10009600000000000000000000000000000000005A
:1000A600000000000000000000000000000000004A
:1000B600000000000000000000000000000000003A
:1000C600001824424224180000000000000000002E
:1000D600000000000000000000000000000000001A
:1000E600000000000000000000000000000000000A
:1000F60000000000000000000000000000000000FA
:1001060000000000000000000000000000000000E9
:1001160000000000000000000000000000000000D9
:1001260000000000000000000000000000000000C9
:1001360000000000000000000000000000000000B9
:10014600FF81FF8181FF81FF0000000000000000A9
:100156000000000000000000000000000000000099
:100166000000000000000000000000000000000089
:100176000000000000000000000000000000000079
:1001860018187E5A5A1824240000000000000000A7
:100196000000000000000000000000000000000059
:1001A6000000000000000000000000000000000049
:1001B6000000000000000000000000000000000039
:1001C600FFFFFFFFFFFFFFFF000000000000000031
:1001D6000000000000000000000000000000000019
:1001E6000000000000000000000000000000000009
:1001F60000000000000000000000000000000000F9
:100206002047414D4500205075736820746865206D
:10021600426F78657300204F50454E00204D616453
:1002260065427959757575616E0054494D450000F2
:10023600474F41540000FFFFFFFFFFFFFFFFFFFF97
:10024600FFFFFFFFFFFF800000000000000000002E
:100256000000000000018000000000000000000017
:100266000000000000018000000000000000000007
:1002760000000000000180000000000000000000F7
:1002860000000000000180000000000000000000E7
:1002960000000000000180000000000000000000D7
:1002A60000000000000180000000000000000000C7
:1002B60000000000000180000000000000000000B7
:1002C60000000000000180000000000000000000A7
:1002D6000000000000018000000000000000000097
:1002E6000000000000018000000000000000000087
:1002F6000000000000018000000000000000000077
:100306000000000000018000000000000000000066
:100316000000000000018000000000000000000056
:100326000000000000018000000000000000000046
:100336000000000000018000000000000000000036
:100346000000000000018000000000000000000026
:100356000000000000018000000000000000000016
:100366000000000000018000000000000000000006
:1003760000000000000180000000000000000000F6
:1003860000000000000180000000000000000000E6
:1003960000000000000180000000000000000000D6
:1003A60000000000000180000000000000000000C6
:1003B60000000000000180000000000000000000B6
:1003C60000000000000180000000000000000000A6
:1003D6000000000000018000000000000000000096
:1003E6000000000000018000000000000000000086
:1003F6000000000000018000000000000000000076
:100406000000000000018000000000000000000065
:100416000000000000018000000000000000000055
:100426000000000000018000000000000000000045
:100436000000000000018000000000000000000035
:100446000000000000018000000000000000000025
:100456000000000000018000000000000000000015
:100466000000000000018000000000000000000005
:1004760000000000000180000000000000000000F5
:1004860000000000000180000000000000000000E5
:1004960000000000000180000000000000000000D5
:1004A60000000000000180000000000000000000C5
:1004B60000000000000180000000000000000000B5
:1004C60000000000000180000000000000000000A5
:1004D6000000000000018000000000000000000095
:1004E6000000000000018000000000000000000085
:1004F6000000000000018000000000000000000075
:100506000000000000018000000000000000000064
:100516000000000000018000000000000000000054
:100526000000000000018000000000000000000044
:100536000000000000018000000000000000000034
:100546000000000000018000000000000000000024
:100556000000000000018000000000000000000014
:100566000000000000018000000000000000000004
:1005760000000000000180000000000000000000F4
:1005860000000000000180000000000000000000E4
:1005960000000000000180000000000000000000D4
:1005A60000000000000180000000000000000000C4
:1005B60000000000000180000000000000000000B4
:1005C60000000000000180000000000000000000A4
:1005D6000000000000018000000000000000000094
:1005E6000000000000018000000000000000000084
:1005F6000000000000018000000000000000000074
:100606000000000000018000000000000000000063
:100616000000000000018000000000000000000053
:10062600000000000001FFFFFFFFFFFFFFFFFFFFCD
:06063600FFFFFFFFFFFFC4
:1010240001235501210008680000000000000000B1
:10103400204028000000010101000000000001041C
:101044000100000000000100010000010101010392
:101054000101010104000302030401010101010370
:101064000101010000000104010000000000010171
:0C107400010000012404012700012600F7
:1010D00012119FE4F589758C3C758AB0D2A9D28C27
:1010E0001211E77F647E001211D01211127F057E6B
:1010F000001211D0121184120FBF8000120CA87FB1
:10110000057E001211D012063C7F057E001211D020
:0211100080EA73
:080B64008F0A8D0B8A0C8B0D2A
:100B6C00E50B5401F50FE50AC394044003020C0491
:100B7C00E4F50E7D017C007F3612116EE50A75F0EE
:100B8C0008A42480250EFF7D017C0012116EE50B5C
:100B9C00C3132480FF7D017C0012116E7D017C004B
:100BAC007F3012116EE50F7028E50D250EF582E4ED
:100BBC00350CF583E493FF121210E50D250EF5822A
:100BCC00E4350CF583E493FF7468250EF8A60780D2
:100BDC001B7468250EF8E6FF121210E50D250EF5B4
:100BEC0082E4350CF583E493FF121210050EE50E2A
:100BFC00C394085003020B7FE50AC394045003020C
:100C0C000C96E4F50E7D017C007F3612116EE50A20
:100C1C0075F008A42460250EFF7D017C0012116E76
:100C2C00E50BC3132488FF7D017C0012116E7D013E
:100C3C007C007F3012116EE50F7028E50D250EF546
:100C4C0082E4350CF583E493FF121210E50D250EAA
:100C5C00F582E4350CF583E493FF7468250EF8A651
:100C6C0007801B7468250EF8E6FF121210E50D259F
:100C7C000EF582E4350CF583E493FF121210050E89
:100C8C00E50EC394085003020C117D017C007F34E7
:0C0C9C0012116E7D017C007F3002116E91
:100CA800E4F508F509F508E4F509E52675F040A42A
:100CB8002428F8E50875F008A4282509F8E6FF6453
:100CC80002600FE50875F008A424282509F8E6B4A1
:100CD8000606850825850922EFB407100527742420
:100CE8002526F8E6B52705E4F5270526E52675F057
:100CF80040A42428F8E50875F008A4282509F8E692
:100D0800B40800504E900D14F8282873020D2C02D8
:100D18000D32020D38020D3E020D44020D5B020D2C
:100D28004A020D507A017B0680227A017BC6801C1C
:100D38007A017B8680167A017B4680107A007BC612
:100D4800800A7A007B8680047A007B46AD09AF086A
:100D5800120B640509E509C394085003020CB20597
:0B0D680008E508C394085003020CAF1C
:010D7300225D
:10063C007F057E001211D0120D748F237F057E0072
:10064C001211D0E52324FB70030208AB14700302D3
:10065C0007791470030209DD24056003020B63E5BE
:10066C002675F040A42420F8E52575F008A428256B
:10067C0022F8E6700302071D24FC700302074B04EA
:10068C006003020B63E52675F040A42428F8E525E9
:10069C0075F008A4282522F8E66406703AE526755C
:1006AC00F040A42418F8E52575F008A4282522F8B4
:1006BC00E6FF700476038071EF64046003020B6341
:1006CC00E52675F040A42418F8E52575F008A42853
:1006DC002522F876078052E52675F040A42418F8F8
:1006EC00E52575F008A4282522F8E6FF70047603AA
:1006FC008042EF64046003020B63E52675F040A4AE
:10070C002418F8E52575F008A4282522F87607802A
:10071C0023E52675F040A42428F8E52575F008A4F7
:10072C00282522F8E66406700BE52675F040A42413
:10073C0020020AD0E52675F040A42420020AE7E541
:10074C002675F040A42428F8E52575F008A4282582
:10075C0022F8E66406700BE52675F040A42420020E
:10076C000B16E52675F040A42420020B41E52675F6
:10077C00F040A42430F8E52575F008A4282522F8CB
:10078C00E6700302084F24FC700302087D0460032A
:10079C00020B63E52675F040A42428F8E52575F0D6
:1007AC0008A4282522F8E66406704CE52675F0406E
:1007BC00A42438F8E52575F008A4282522F8E6FFCE
:1007CC00700D7603E52675F040A42430020AD0EFB4
:1007DC0064046003020B63E52675F040A42438F82A
:1007EC00E52575F008A4282522F87603E52675F092
:1007FC0040A42430020AD0E52675F040A42438F831
:10080C00E52575F008A4282522F8E6FF700D76037F
:10081C00E52675F040A42430020AE7EF6404600377
:10082C00020B63E52675F040A42438F8E52575F035
:10083C0008A4282522F87603E52675F040A4243078
:10084C00020AE7E52675F040A42428F8E52575F0A2
:10085C0008A4282522F8E66406700BE52675F040FE
:10086C00A42430020AD0E52675F040A42430020AF4
:10087C00E7E52675F040A42428F8E52575F008A4D2
:10088C00282522F8E66406700BE52675F040A424B2
:10089C0030020B16E52675F040A42430020B41E51E
:1008AC002675F040A42427F8E52575F008A4282522
:1008BC0022F8E6700302098124FC70030209AF04DC
:1008CC006003020B63E52675F040A42428F8E525A7
:1008DC0075F008A4282522F8E66406704CE5267508
:1008EC00F040A42426F8E52575F008A4282522F864
:1008FC00E6FF700D7603E52675F040A42427020A66
:10090C00D0EF64046003020B63E52675F040A42469
:10091C0026F8E52575F008A4282522F87603E526A7
:10092C0075F040A42427020AD0E52675F040A424D3
:10093C0026F8E52575F008A4282522F8E6FF700DA9
:10094C007603E52675F040A42427020AE7EF640439
:10095C006003020B63E52675F040A42426F8E52518
:10096C0075F008A4282522F87603E52675F040A436
:10097C002427020AE7E52675F040A42428F8E5258B
:10098C0075F008A4282522F8E66406700BE5267598
:10099C00F040A42427020AD0E52675F040A42427B1
:1009AC00020AE7E52675F040A42428F8E52575F041
:1009BC0008A4282522F8E66406700BE52675F0409D
:1009CC00A42427020B16E52675F040A42427020B5D
:1009DC0041E52675F040A42429F8E52575F008A416
:1009EC00282522F8E67003020AB024FC7003020AE0
:1009FC00F6046003020B63E52675F040A42428F886
:100A0C00E52575F008A4282522F8E66406704BE568
:100A1C002675F040A4242AF8E52575F008A42825AD
:100A2C0022F8E6FF700D7603E52675F040A4242924
:100A3C00020AD0EF64046003020B63E52675F040F4
:100A4C00A4242AF8E52575F008A4282522F87603B5
:100A5C00E52675F040A42429806AE52675F040A4AB
:100A6C00242AF8E52575F008A4282522F8E6FF705D
:100A7C000C7603E52675F040A42429805EEF64040F
:100A8C006003020B63E52675F040A4242AF8E525E3
:100A9C0075F008A4282522F87603E52675F040A405
:100AAC0024298037E52675F040A42428F8E525751F
:100ABC00F008A4282522F8E664067017E52675F0E0
:100ACC0040A42429F8E52575F008A4282522F876F9
:100ADC00028044E52675F040A42429F8E52575F03C
:100AEC0008A4282522F876028058E52675F040A443
:100AFC002428F8E52575F008A4282522F8E66406D4
:100B0C00702BE52675F040A42429F8E52575F0082E
:100B1C00A4282522F87606E52675F040A42428F8AA
:100B2C00E52575F008A4282522F8760422E526751B
:100B3C00F040A42429F8E52575F008A4282522F80E
:100B4C007606E52675F040A42428F8E52575F0080E
:080B5C00A4282522F8E4F6228A
:03000B00020003ED
:03000300052132A2
:1011B9007D527C03ED1D70011C144C70F7EF1F70FC
:0611C900011E144E70EA45
:0111CF0022FD
:10114B007E027D697C5AAB061EEB600EAB051DEB78
:0C115B0060F4AB041CEB60F480F8DFE4EF
:011167002265
:10119F00E4F593F594F591F592F595F596F5B1F58E
:0A11AF00B2F5B3F5B4F5C9F5CA2294
:100D74007508107509557580F00000000000E580C5
:100D840064F07003020E3A7F037E001211B9E5800D
:100D940064F07003020E3AAF8075800F000000000B
:100DA40000AE80EF2EF50812000E0E2D770E287B74
:100DB4000E237D0E1E7E0E19B70E14BB0E0FBD0E34
:100DC4000ABE0E05D70E00DB0DFBDD0DF6DE0DF1C0
:100DD400E70DECEB0DE7ED0DE2EE00000E32E4F56D
:100DE40009804E750901804975090280447509031B
:100DF400803F750904803A750905803575090680B8
:100E040030750907802B750908802675090980212A
:100E140075090A801C75090B801775090C801275F9
:100E2400090D800D75090E800875090F8003750979
:080E340055E580B40FFBAF0986
:010E3C002293
:0D00340075D6FE75D7E0758E14759A5022B2
:0300430002108127
:10108100C0E0C0D0E59A30E041539AFEE51C1460FF
:101091001514601E1460272403702FE59B644170B2
:1010A10029751C018024E59BB45405751C02801A26
:1010B1008015E59BB42B05751C03800E8009E59B0B
:0F10C100B44304B2008000751C00D0D0D0E032E0
:1011D0007D527C03ED1D70011C144C70F7EF1F70E5
:0611E000011E144E70EA2E
:0111E60022E6
:1011E700D2C0E4FFD2C3C2C30FBF14F8D2CCC2CC63
:0411F700D2CCC2CCC8
:0111FB0022D1
:05122200121227D2A703
:0B12270000000000000000000000229A
:101210008F101211FCD2A5C2A6851080121222C214
:02122000A72203
:061168007D017C007F30D8
:10116E008F10ED4C60031211FCC2A5C2A685108033
:06117E00121222C2A7229A
:1011FC007580FFC2A5D2A6121222E58020E7FBC2A1
:04120C00A7AF8022E6
:10111200D2A47F0A7E001211D0C2A37F0A7E0012DF
:1011220011D0D2A37F647E001211D01211687D010A
:101132007C007F0112116E7D017C007F0612116E10
:091142007D017C007F0C02116E9E
:101184007D017C007F0112116E7D017C007F341291
:0B119400116E7D017C007F3002116EA7
:060F57008F188A198B1AA5
:100F5D00E4F51BEDC3940150027D01EDD3940440E3
:100F6D00027D0453180FED24FE600F146011146000
:100F7D001324037012430780800D430790800843AC
:100F8D00078880034307987D017C0012116EE51AD6
:100F9D00251BF582E43519F583E493FFC3942040B6
:100FAD0010E518D3940F50E6121210051B0518808A
:010FBD00DD56
:010FBE002210
:040E3D008E118F1271
:100E4100E4F516F517F515E515C39409506AE4F5AF
:100E5100137D017C007F3412116EE5132480FF7D28
:100E6100017C0012116EE5152480FF7D017C0012CA
:100E7100116E121168E4F5147E00E5172514FFEEDA
:100E81003516FEE5122FF582E5113EF583E493FF59
:100E91001212100514E514C3941040DC74102517C8
:100EA100F517E43516F5160513E513C3942040A193
:100EB10074082515F515808F7D017C007F36121190
:0A0EC1006E7D017C007F3002116E8F
:100FBF00E4F50AE50AC394095049E4F5087D017C7C
:100FCF00007F3412116EE5082480FF7D017C001232
:100FDF00116EE50A2480FF7D017C0012116E121143
:100FEF0068E4F509E4FF1212100509E509C394102E
:100FFF0040F20508E508C3942040C27408250AF59D
:10100F000A80B07D017C007F3612116E7D017C005D
:05101F007F3002116E9C
:03000000020ECB22
:0C0ECB00787FE4F6D8FD75816F020F12ED
:10000E00D083D082F8E4937012740193700DA3A381
:10001E0093F8740193F5828883E473740293686095
:06002E00EFA3A3A380DF95
:100ED7000210D0E493A3F8E493A34003F68001F251
:100EE70008DFF48029E493A3F85407240CC8C3331C
:100EF700C4540F4420C8834004F456800146F6DFEB
:100F0700E4800B0102040810204080901024E47E46
:100F1700019360BCA3FF543F30E509541FFEE493DF
:100F2700A360010ECF54C025E060A840B8E493A3A6
:100F3700FAE493A3F8E493A3C8C582C8CAC583CAD1
:100F4700F0A3C8C582C8CAC583CADFE9DEE780BE89
:01108000006F
:00000001FF
